:020000040000FA
:020000000328D3
:040002000034003492
:0A00060007309F0003138316C0307B
:100010008600831206102B20000000000000E13053
:10002000B400340886003D200000000000000301F9
:10003000E230B300330886002B20000000000000EF
:10004000CC30B400340886003D200000D430B3002A
:10005000330886000A280B30B300B30B2D28493033
:10006000B0005230B10000003630B200B20B36287A
:10007000B10B3328B00B312808007330B400B40B37
:100080003F28EF30B500EB30B60000001C30B70061
:0E009000B70B4828B60B4528B50B43280800CF
:02400E00193F58
:00000001FF
